:100000000C943C000C9469000C9400000C940000CB
:100010000C9400000C9400000C9400000C94000060
:100020000C9400000C9400000C9400000C94000050
:100030000C9400000C9400000C9400000C94000040
:100040000C9400000C9400000C9400000C94000030
:100050000C9400001027E80364000A00010000105F
:10006000000110000100760080C0020060026600FE
:100070000200620268000000F894EE27ECBBF1E099
:10008000FBBFEBBFE5BF8DE0A2E0BB27ED938A95F8
:10009000E9F780E098E0A0E6ED930197E9F7EAE65A
:1000A000F0E085919591009761F0A591B59105904B
:1000B0001590BF01F00105900D920197E1F7FB014A
:1000C000F0CFEFE5EDBFE8E0EEBFC0E6D2E00C9484
:1000D00096000A921A92FA926A937A938A939A9362
:1000E000AA93BA93EA93FA93EFB7EA93F894E4E009
:1000F000EBBBB09B02C0A1E368D0B19B02C0A2E3FE
:1001000064D0B29B02C0A3E360D0EFE0EBBB789475
:10011000E991EFBFF991E991B991A99199918991EB
:1001200079916991F9901990099018952897EFE0C5
:10013000EABBEBBBE0E0E7BBE8BBE4BBE5BBE1BB94
:10014000E2BBEBB7E064EBBFE0E0E5BFE4BFE0E4B7
:10015000EABFE0E0EBB9E8E1EAB9E6E8E0BDE0E0FB
:10016000E0BDE3E3E9B9A8E00E944A0178945F9B0F
:10017000FECF00E010E00830E0E01E076CF4F8016C
:10018000DE01EA0FFB1FFF93EF931BD0AF91BF91EE
:10019000EC930F5F1F4FEFCF0E941801E0E0EA934E
:1001A000A0E00E940B01DE010E943901E4E0EA9325
:1001B000A0E00E940B01A0E6B2E00E943901D7CF77
:1001C000FFCF5F9BFECFECB10895AA935D9BFECF5E
:1001D000E881ECB98BC0AA93E5B3EF70AE2FE8814C
:1001E000E07FEA2BE5BB8DE08A95F1F7AA9A8DE0D6
:1001F0008A95F1F7AA988DE08A95F1F777C0AA93CE
:10020000A881E9DFE881E295E883A881E4DF85E859
:100210008A95F1F76BC0AA93E881F0E0EE59FD4FA3
:10022000E081A981AE0FEBDF5980488022960895C6
:10023000A2E00E947801ACE0E2DFA1E00E94780138
:10024000E0E04E2E5E2E0895AA93A881AA3011F008
:10025000571448F0E0E0EA934394A42DDCDFA88132
:10026000AA3009F443C05394A89AA881C8DFA8987B
:100270003DC0BA93AA931A93A981BA81ED91A9833B
:10028000BA831E2FE03019F0A12FDEDFF5CF1881E1
:1002900023960895AA93E4B3E06FE4BBA29AA09AD0
:1002A000A19AAA98A898A9987880E881E058E09344
:1002B0006402E881E054E0936502A4E1B0E00E94AA
:1002C00086010E947E010E947E010E947E01A0E2C2
:1002D00082DF88EC90E00197F1F7A8E290DFA4E0DC
:1002E0008EDFA5E88CDFA6E08ADFA2DF21960895E5
:1002F0000E94FF00A3E0B0E00C948601A0E30E94FE
:10030000EB0088EC90E00197F1F70895109639F032
:1003100080ED97E00197F1F7A8951197C9F7089537
:00000001FF
