:0C0000000C943D000C9400000C940000D7
:10000C000C9400000C9400000C9400000C94000064
:10001C000C9400000C9400000C9400000C94000054
:10002C000C9400000C9400000C9400000C94000044
:10003C000C9400000C9400000C9400000C94000034
:10004C000C9400000C9400001027E80364000A00D4
:10005C000100001000011000010001002D4E414E66
:10006C0000494E4600000100600266000000F89452
:10007C00EE27ECBBF1E0FBBFEBBFE5BF8DE0A2E0F0
:10008C00BB27ED938A95E9F780E098E0A0E6ED9325
:10009C000197E9F7E2E7F0E085919591009761F01F
:1000AC00A591B59105901590BF01F00105900D92A9
:1000BC000197E1F7FB01F0CFEFE5EDBFE8E0EEBF14
:1000CC00C0E6D2E00C947800AA93E881E7B98BE102
:1000DC008A95F1F7369A349BFECF349AE4B1F5B198
:1000EC000C949F016097E0E0EABBEBBBE7BBE8BB7D
:1000FC00E4BBE5BBE1BBE2BBEBB9E8E1EAB9E6E89E
:10010C00E0BDE0E0E0BDE3E3E9B9E0E0E7B9E3EA54
:10011C00E6B9E0E0E0BF5F9BFECF0E949601EF7076
:10012C00E1501E2FA12FD0DF662777270E949E0259
:10013C00EC87FD876E877F87AC85BD858E859F8517
:10014C00E0E0F0E06DE473E40E947603E887F98761
:10015C006A877B870E94F703E2E0EA93DE0115963B
:10016C000E94C90020E030E02830E0E03E074CF46B
:10017C00DE01A20FB31FAC910E949A012F5F3F4F7B
:10018C00F3CFC9CFFFCFBA93AA932497E0E0E883CB
:10019C00E983EA83EFE3EB831A930A93EB85FC85FF
:1001AC00EF3FAFEFFA0739F40E94F601A8E6B0E092
:1001BC000E94E901B1C0EF3FAFE7FA0739F40E94A2
:1001CC00F601A9E6B0E00E94E901A6C0AC85AA231D
:1001DC0062F4E985FA856B857C850E9432020E9467
:1001EC00FB010E940002EDE2EC93A885A73010F011
:1001FC00E6E0E8871885E12F1150E03039F00E94D5
:10020C0007020E940C020E941302F5CF0E941802F2
:10021C000E94D8020E94FB0110E0E0E0F0E060E8F0
:10022C007FE30E9413020E9418020E94BB0388F015
:10023C000E9407020E9421020E9413021F5F1732C4
:10024C0038F00E94F601ADE6B0E00E94E90164C00E
:10025C00EACF103029F40E940002E0E3EC932FC0A7
:10026C00E12F1150E03059F10E9407020E940C025C
:10027C00A0E0B0E080E09FE30E94D802DF01CB0158
:10028C000E94D2010E9413020E9418020E9476035F
:10029C000E9465020E2F0E940002E02FE05DEC939D
:1002AC00E02FF0E00E9407020E94E3030E949E02EE
:1002BC000E9428030E9428020E942D02D1CFE885BB
:1002CC00E03031F10E940002EEE2EC93E885E1505F
:1002DC00E887EF5FE9F00E9428020E9421020E9449
:1002EC00FB01E985FA856B857C850E9465020E2FE2
:1002FC000E940002E02FE05DEC93E02FF0E00E9402
:10030C0028020E94E3030E949E020E942D02DECF6F
:10031C00AE81BF81E0E0EC93198108812D960895A0
:10032C005F9BFECFECB10895AA935D9BFECFE88155
:10033C00ECB9219608950E94FC037B816A81F981B6
:10034C00E88177FB770F67FD7160972F9E5781F0DF
:10035C0078F0983190F4AA27BB27882708948795C2
:10036C00B795A7959A95D1F7EA23FB23682305C087
:10037C00E8947727EE27FF2766276F77769508F4A2
:10038C00606877F9A991B99189919991EA17FB075E
:10039C006807790797FB08950E94FC030E94ED0300
:1003AC000E94A1010E94F20319F40E94E80309C003
:1003BC00E6F70E94E803A0E0B0E080E89FE30E942B
:1003CC00D10224960895BA93AA93E991F991A9912F
:1003DC00B991CD0105900D920020E1F7FC01089533
:1003EC00EE81FF81FA93EA930895E987FA876B8788
:1003FC007C870895AE81BF811196AE83BF83119720
:10040C000895AA81BB818C819D810895EDECFCEC53
:10041C006CEC7DE30E9428030895EA83FB836C83D4
:10042C007D830895EA81FB816C817D81A985BA85E4
:10043C008B859C850895E0E0F0E060E271E40E9419
:10044C0028030895A985BA858B859C8508950E94FB
:10045C0001040E94D102C9CF30976040704009F06E
:10046C0070580895552342F4503811F4E0FF04C03D
:10047C003196691F791F6BF050E8572711F45F9381
:10048C00CFC05F3F31F0660F000C57956795752F05
:10049C0008955F9300200AF0CFC0C8C050E8192E11
:1004AC001522880F991F9527550F879550E8072E11
:1004BC000522660F771F7527550F67950895689469
:1004CC0001C0E8945F93F2DF703818F07F3F08F4B6
:1004DC00A7C056E1571BAAF4519558300EF4593069
:1004EC0030F0EFEFFFEF6FEF7FE777F91AC0772768
:1004FC005523B9F0EE0FFF1F661F771F5A95D1F7E2
:10050C0010C07727583028F0EF2FF62F672F585050
:10051C00F9CF552331F076956795F795E7955A9570
:10052C00D1F700200AF441D15F910895689401C07D
:10053C00E894309760407040B1F0002426F07723A7
:10054C0012F4009432D1172E7EE1112032F07A95FC
:10055C00EE0FFF1F661F111CF9CFEF2FF62F612D29
:10056C005F938ADF5F9108954F93AF01FD01DA012C
:10057C00AB01BC01CA01402D012C142E4F910895E2
:10058C00EA0FFB1F681F0895E095F0956095EF5FEB
:10059C00FF4F6F4F08955F9381DF903871F150E8F2
:1005AC00152604C05F937ADF903839F1703821F149
:1005BC00572F591B2BF112F4D7DFFACF583118F003
:1005CC00AA27BB278827583028F0AB2FB82F8827AD
:1005DC005850F9CF552329F08695B795A7955A957C
:1005EC00D9F7502D512572F0CBDF38F46795F7957C
:1005FC00E795739513F420C0B7DF3EDF5F91089544
:10060C00D8F7FBCFEA1BFB0B680B51F010F40094EE
:10061C00BBDF662392F3EE0FFF1F661F7A95CBF7B5
:10062C00EE27FF27662777275F910895EFEFFFEFFF
:10063C006FE77FEF5F910895EFEFFFEF6FE77FE7D5
:10064C005F9108955F932ADF703851F3903841F32E
:10065C0001240894791F23F41CF300203AF3ECCF07
:10066C000F921F932F933F934F9311272227992774
:10067C00689FA0018F9F302D410D591F6B9F300D2E
:10068C00411D591F8E9F27D0BF9F25D06A9F23D015
:10069C00BE9F1DD0AF9F1BD0AE9F110D291F391FC0
:1006AC00491F591FE32FF42F652F522F4F913F9164
:1006BC002F911F910F9066232AF0550FEE1FFF1FED
:1006CC00661F02C073954BF2CDDE5F910895100D3D
:1006DC00211D391F02C0200D311D491F591F0895BE
:1006EC005F93DCDE703821F411200AF49FCFA4CF85
:1006FC00903809F495CF01240894970B1BF4D4F38C
:10070C000020F3CF792F1F932F933F934F931124F6
:10071C001127222733274427552790E2AE17BF070E
:10072C008607410730F0AE1BBF0B860B410B0894BC
:10073C0001C08894551F221F331F111CAA1FBB1FF9
:10074C00881F441F9A9551F7F901612D4F913F91E4
:10075C002F911F91662332F0550FEE1FFF1F661F5E
:10076C007A9543F27FDE5F91089599239AF077236F
:10077C0042F0971748F029F4AE17BF07860720F010
:10078C0031F0989488940895989408940895189446
:10079C00889408957723C2F7971798F3A9F7EA1767
:1007AC00FB07680788F399F3ECCFF095609570958B
:1007BC00E195FF4F6F4F7F4F08956F2F660F660BBC
:1007CC00762F0895E881F9816A817B810895A8814B
:1007DC00B9818A819B810895E883F9836A837B833D
:1007EC0008957A936A93FA93EA9308959A938A9365
:1007FC00BA93AA930895182E862F612D192E972F30
:10080C00712D1B2EBF2FF12D1A2EAE2FE12D089519
:00000001FF
